:020000040800F2
:100000007005002045010008F5210008F7210008CF
:10001000FB210008FF210008032200080000000067
:10002000000000000000000000000000072200089F
:1000300009220008000000000B2200080D22000821
:100040005F0100085F0100085F0100085F01000810
:100050005F0100085F0100085F0100085F01000800
:100060005F0100085F0100085F0100085F010008F0
:100070005F0100085F0100085F0100085F010008E0
:100080005F0100085F0100085F0100085F010008D0
:100090005F0100085F0100085F0100085F010008C0
:1000A0005F0100085F0100085F0100085F010008B0
:1000B0005F0100085F010008392200085F010008A5
:1000C0005F0100085F0100085F0100085F01000890
:1000D0005F0100080F2200085F0100085F010008AF
:1000E0005F0100085F0100085F0100085F01000870
:1000F0005F0100085F0100085F0100085F01000860
:100100005F0100085F0100085F0100085F0100084F
:100110005F0100085F0100085F0100085F0100083F
:100120005F0100085F0100085F0100085F0100082F
:10013000DFF80CD003F010F90048004799210008BF
:10014000700500200648804706480047FEE7FEE7A6
:10015000FEE7FEE7FEE7FEE7FEE7FEE7FEE7FEE777
:1001600047020008310100080CB500200190009002
:100170006C48006840F480306A49086000BF6948F4
:10018000006800F4003000900198401C0190009835
:1001900018B90198B0F5A06FF1D16248006800F479
:1001A000003010B10120009001E000200090009884
:1001B000012843D15C48006840F010005A490860AB
:1001C0000846006820F0030008600846006840F018
:1001D0000200086053484068524948600846406839
:1001E00048600846406840F48060486008464068BF
:1001F00020F47C1048600846406840F4E8104860ED
:100200000846006840F08070086000BF45480068FC
:1002100000F000700028F9D04248406820F0030048
:10022000404948600846406840F00200486000BF0E
:100230003C48406800F00C000828F9D10CBD10B50E
:10024000FFF792FF10BD10B53648006840F001007E
:1002500034490860084640683449084031494860DC
:1002600008460068324908402E4908600846006880
:1002700020F4802008600846406820F4FE004860B2
:100280004FF41F008860FFF7DAFF4FF00060294944
:10029000086010BD10B5002100200022214B5B68D2
:1002A00003F00C0121B1042906D0082928D107E068
:1002B000214B224C236027E01F4B204C236023E07E
:1002C000184B5B6803F47010164B5B6803F48032C4
:1002D000022303EB904022B9194B4343174C236090
:1002E0000DE0104B5B6803F4003323B1144B434320
:1002F000124C236003E0104B4343104C236003E097
:100300000D4B0E4C236000BF00BF064B5B68C3F370
:1003100003130C4CE15C094B1B68CB40074C23607A
:1003200010BD000000100240002002400000FFF855
:10033000FFFFF6FE08ED00E000127A00000000204A
:1003400000093D000400002031490143314A116099
:10035000704770B5002100230F22C47804B32D4CE0
:10036000246804F4E064C4F5E064210AC1F10403E4
:10037000CA40447804FA03F1847814402143090107
:10038000254C0678A155047804F01F050124AC40E3
:1003900005786D11AD0005F1E025C5F8004109E0D3
:1003A000047804F01F050124AC401C4D067876113A
:1003B00045F8264070BD1A4A0A400243154B1B1FE0
:1003C0001A60704739B1134A121D12680243114B6B
:1003D0001B1D1A6006E00F4A121D126882430D4B66
:1003E0001B1D1A607047042808D14FF0E0210969ED
:1003F00041F004014FF0E022116107E04FF0E021ED
:10040000096921F004014FF0E022116170470000FA
:100410000000FA050CED00E000E400E080E100E0FF
:1004200080FFFF1F10B50446FA48844208D101211D
:10043000401500F055FD0021601500F051FD17E05A
:10044000F548844208D10121001500F049FD002142
:10045000201500F045FD0BE0F048844208D1012151
:10046000C80300F03DFD00214FF4004000F038FDCE
:1004700010BD30B50246002000235068E84C2040F3
:100480000D790C6844EA0524204350609068E54CDF
:100490002040D1E902542C434D7944EA45042043DD
:1004A0009060D06A20F470000C7C641EE4B2234398
:1004B00040EA0350D06230BD0021016001714171FA
:1004C0008160C16001210174704721B1826842F0EE
:1004D0000102826003E0826822F0010282607047BC
:1004E00021B1826842F48072826003E0826822F463
:1004F00080728260704710B50023CBB21AB1446895
:100500001C43446002E044689C43446010BD816821
:1005100041F0080181607047014600208A6802F0BE
:1005200008020AB1012000E000207047816841F014
:10053000040181607047014600208A6802F00402CD
:100540000AB1012000E00020704721B1826842F426
:10055000A002826003E0826822F4A00282607047F9
:10056000014600208A6802F480020AB1012000E0FE
:100570000020704710B50A4600210023416821F48D
:100580006041531E41EA4331416010BD21B14268D0
:1005900042F40062426003E0426822F4006242607A
:1005A0007047F0B504460D4600200021092D11DDED
:1005B000E068A5F10A0606EB4607072606FA07F1EA
:1005C0008843A5F10A0606EB460603FA06F108433E
:1005D000E0600CE0206905EB4507072606FA07F105
:1005E000884305EB450603FA06F108432061072A14
:1005F0000FDA606B561E06EB86071F2606FA07F118
:100600008843561E06EB860605FA06F1084360632A
:1006100022E00D2A0FDA206BD61F06EB86071F2675
:1006200006FA07F18843D61F06EB860605FA06F19F
:100630000843206310E0E06AA2F10D0606EB86078E
:100640001F2606FA07F18843A2F10D0606EB86067F
:1006500005FA06F10843E062F0BD21B1826842F478
:100660008012826003E0826822F480128260704708
:100670000146C86C80B2704766484C3000687047CD
:1006800021B1426842F48062426003E0426822F491
:1006900080624260704721B1426842F480524260F9
:1006A00003E0426822F48052426070470A4600210B
:1006B000816821F4E04111438160704721B1826873
:1006C00042F40042826003E0826822F400428260C9
:1006D000704721B1826842F40212826003E08268AE
:1006E00022F4021282607047014600208A6802F4F8
:1006F00000120AB1012000E000207047F0B5044666
:100700001546002000220026092911DDE068A1F12C
:100710000A0707EB470C072707FA0CF29043A1F1F1
:100720000A0707EB470703FA07F21043E0600CE003
:10073000206901EB410C072707FA0CF2904301EB0B
:10074000410703FA07F210432061A06BC0F3015682
:10075000EF1C06F1010CA7EB0C0707EB870C1F271A
:1007600007FA0CF29043EF1C06F1010CA7EB0C0703
:1007700007EB870701FA07F21043A063F0BD10B53D
:100780000A4600210023816B21F44011531E41EAE7
:100790000351816310BD08B5002300930090009BB6
:1007A0000B440093009B1A6008BD08B50246002068
:1007B0000090009201F12800009B184400900098DE
:1007C000006880B208BD0A4600214168164B1940F6
:1007D0001143416070474162826270470A460021BE
:1007E000416821F01F0111434160704740B1094940
:1007F0000831096841F40001064A0832116007E037
:1008000004490831096821F40001024A08321160E4
:10081000704700000024014000280140003C0140D6
:10082000FFFEF0FFFDF7F1FFFFFD3FFF0246002056
:1008300013680B400BB1012000E000207047CA4351
:100840000260704770B502460020002300240B129E
:100850005568CEB205EA060415681D4015B10CB105
:10086000012000E0002070BD00220A12D343036083
:100870007047000010B50446CC48844208D10121DD
:10088000042000F02DFB0021042000F029FB46E0AD
:10089000C748844208D10121082000F021FB002133
:1008A000082000F01DFB3AE0C248844208D1012133
:1008B000102000F015FB0021102000F011FB2EE0AD
:1008C000BD48844208D10121202000F009FB00210D
:1008D000202000F005FB22E0B848844208D1012125
:1008E000402000F0FDFA0021402000F0F9FA16E067
:1008F000B348844208D10121802000F0F1FA0021A0
:10090000802000F0EDFA0AE0AE48844207D10121D0
:10091000801500F0E5FA0021A01500F0E1FA10BD05
:1009200010B50121084600F0DBFA0021012000F09B
:10093000D7FA10BD2DE9F04102460025002600201F
:1009400000230024002791F803C00CF00F0591F854
:1009500003C00CF0100CBCF1000F03D091F802C0E2
:100960004CEA050591F800C0BCF1000F31D01468C5
:1009700000202BE04FF0010C0CFA00F3B1F800C09E
:100980000CEA03069E4220D183004FF00F0C0CFAB4
:1009900003F7BC4305FA03FC4CEA040491F803C0D6
:1009A000BCF1280F06D14FF0010C0CFA00FCC2F884
:1009B00014C00AE091F803C0BCF1480F05D14FF014
:1009C000010C0CFA00FCC2F810C0401C0828D1D35E
:1009D0001460B1F800C0BCF1FF0F34DD5468002092
:1009E0002EE000F1080C4FF0010808FA0CF3B1F802
:1009F00000C00CEA03069E4221D183004FF00F0C89
:100A00000CFA03F7BC4305FA03FC4CEA040491F822
:100A100003C0BCF1280F05D100F1080C08FA0CF84E
:100A2000C2F8148091F803C0BCF1480F07D100F15F
:100A3000080C4FF0010808FA0CF8C2F81080401CAE
:100A40000828CED35460BDE8F0814FF6FF710180D5
:100A5000022181700421C170704702460020936812
:100A60000B400BB1012000E0002070470146886870
:100A700080B2704702460020D3680B400BB10120C2
:100A800000E0002070470146C86880B270470161ED
:100A90007047416170470AB1016100E041617047F0
:100AA000C16070474FF480320A4382618161826184
:100AB00082698269704702460020434B18684FF6EE
:100AC0008073184040EA021008433F4B186070479B
:100AD0003E49C8617047F0B50A4600230024002152
:100AE000002500F00046B6F1004F02D1364EF16904
:100AF00001E0354E7168C0F3034583B200F440163F
:100B0000B6F5401F08D121F070612F4E766826F0AF
:100B100070662D4F7E6012E000F48016B6F5801FDF
:100B200006D1032606FA05F4A14341F0706106E000
:100B3000460D360103FA06F6B14341F0706122B169
:100B4000460D360103FA06F6314300F00046B6F1D1
:100B5000004F02D11C4EF16101E01B4E7160F0BDEF
:100B600030B500228B071C0F0F2303FA04F2164B3B
:100B700008338C1053F824309343134C08348D10F1
:100B800044F8253023468C1053F824308C07240F6A
:100B900000FA04F423430C4C08348D1044F825303B
:100BA00030BD0A49DC310860704700000008014090
:100BB000000C0140001001400014014000180140E9
:100BC000001C0140002001400000014000002042C4
:100BD000DF48006840F00100DD49086008464068D1
:100BE000DC490840DA49486008460068DA490840AC
:100BF000D74908600846006820F48020086008464D
:100C0000406820F4FE0048604FF41F008860704781
:100C1000CF49096821F48031CD4A11601146096835
:100C200021F480211160B0F5803F03D0B0F5802F12
:100C30000ED106E0C649096841F48031C44A11600A
:100C400007E0C349096841F4A021C14A116000E0EE
:100C500000BF00BF704710B50146002200230020EE
:100C60004A11012A02D1BA4C236806E0022A02D1B5
:100C7000B74C236A01E0B64C636A01F01F020124FD
:100C800094401C400CB1012000E0002010BD38B59C
:100C9000002000900024002500BF3120FFF7DBFF7B
:100CA00005460098401C00900098B0F5A06F01D058
:100CB000002DF2D03120FFF7CEFF08B1012400E073
:100CC0000024204638BD01460020A14A106820F0CB
:100CD000F80040EAC10010607047A0490860704702
:100CE000024600209A4B586820F47C1042EA010327
:100CF0001843974B586070479849086670470146FB
:100D00000020934A506820F0030008435060704769
:100D10008F48406800F00C007047014600208C4A64
:100D2000506820F0F00008435060704701460020F2
:100D3000874A506820F4E0600843506070470146DD
:100D40000020834A506820F4605040EAC10050609F
:100D5000704729B17E4A527A02437D4B5A7204E0B1
:100D60007B4A527A82437A4B5A7270477B49D83118
:100D70000860704701460020754A506820F44040E2
:100D80000843506070470021714A20321170704A48
:100D900082F82010012802D004280AD104E00121A1
:100DA0006B4A2032117005E00521694A203211702A
:100DB00000E000BF00BF70476949086070476449A0
:100DC000096A0143624A1162704765494439086003
:100DD000704730B500210022002400235C4D6D686F
:100DE00005F00C0121B1042905D0082923D105E023
:100DF0005C4D056022E05B4D05601FE0544D6D6861
:100E000005F47012524D6D6805F48034022505EB2F
:100E100092421CB9544D554305600BE04C4D6D6832
:100E200005F400351DB1504D5543056002E04D4DB0
:100E30005543056002E04B4D056000BF00BF444DC7
:100E40006D6805F0F0010909484D6B5C0568DD40EF
:100E500045603F4D6D6805F4E061090A434D6B5CE8
:100E60004568DD4085603A4D6D6805F46051C90AFA
:100E70003E4D6B5C4568DD40C560354D6D6805F4E1
:100E80004041890B3A4D6B5CC568B5FBF3F50561D4
:100E900030BD29B12E4A526902432D4B5A6104E0FC
:100EA0002B4A526982432A4B5A61704729B1284A1A
:100EB00092690243264B9A6104E0254A9269824373
:100EC000234B9A61704729B1214AD2690243204BD2
:100ED000DA6104E01E4AD26982431D4BDA61704731
:100EE00029B11B4AD2680243194BDA6004E0184A60
:100EF000D2688243164BDA60704729B1144A1269EE
:100F00000243134B1A6104E0114A12698243104BE9
:100F10001A61704712494039086070470F49C86428
:100F200070470B49C87170470948406A40F08070AB
:100F300007494862704701460020054A92680A4006
:100F40000AB1012000E00020704701498872704713
:100F5000001002400000FFF8FFFFF6FE00004242D2
:100F60008004424200127A0000093D001400002073
:100F70002400002010B50446FE48844208D1012117
:100F8000C014FFF7ADFF0021E014FFF7A9FFC4E094
:100F9000B4F1804F08D101210846FFF7AEFF0021D0
:100FA0000120FFF7AAFFB8E0F348844208D10121ED
:100FB0000220FFF7A2FF00210220FFF79EFFACE016
:100FC000EE48844208D101210420FFF796FF00215A
:100FD0000420FFF792FFA0E0E948844208D10121F4
:100FE0000820FFF78AFF00210820FFF786FF94E022
:100FF000E448844208D101211020FFF77EFF002140
:101000001020FFF77AFF88E0DF48844208D10121F1
:101010002020FFF772FF00212020FFF76EFF7CE009
:10102000DA48844208D101214014FFF759FF00211A
:101030006014FFF755FF70E0D548844209D10121C3
:10104000C804FFF74DFF00214FF40020FFF748FFD1
:1010500063E0D048844209D101210805FFF740FF31
:1010600000214FF48010FFF73BFF56E0CA4884424E
:1010700009D101214805FFF733FF00214FF400108B
:10108000FFF72EFF49E0C548844208D101214020E6
:10109000FFF733FF00214020FFF72FFF3DE0C0485E
:1010A000844208D101218020FFF727FF0021802002
:1010B000FFF723FF31E0BB48844208D101218015AE
:1010C000FFF71BFF0021A015FFF717FF25E0B6482B
:1010D000844209D101210804FFF702FF00214FF4E7
:1010E0008030FFF7FDFE18E0B048844209D10121AD
:1010F0004804FFF7F5FE00214FF40030FFF7F0FE43
:101100000BE0AB48844208D101218804FFF7E8FED8
:1011100000214FF48020FFF7E3FE10BD002202887B
:10112000944B98420ED0994B98420BD0B0F1804F1F
:1011300008D0914B984205D0904B984202D0904BEA
:10114000984204D14FF68F731A404B881A438D4B47
:10115000984207D08C4B984204D04FF6FF431A4078
:10116000CB881A4302808B8883850B880385814B4B
:1011700098420BD0854B984208D08B4B984205D0B3
:101180008A4B984202D08A4B984201D10B7A03864F
:1011900001238382704770B5002400220023058C50
:1011A0004FF6FE7635400584028C8388048B4FF61B
:1011B0008F752C40B51E2C400D882C43751E2A407F
:1011C0000D892A434D882A436A4DA8420BD06F4DA2
:1011D000A84208D0744DA84205D0744DA84202D050
:1011E000734DA84213D14FF6F7752A404D892A4313
:1011F0004FF6FB752A408D882A434FF6FF652B403A
:101200004FF6FF552B408D892B43CD892B4383808F
:101210000483CD888586028470BD70B500240022C9
:101220000023058C4FF6EF7635400584028C8388C9
:10123000048B48F6FF752C404FF6FF452C400D8877
:101240004FF6FF7606EA05252C434FF6DF752A4058
:101250000D8906EA05152A434D8806EA05152A4335
:10126000444DA84202D0494DA8421DD14FF67F758A
:101270002A404D894FF6FF7606EA05152A434FF6B8
:10128000BF752A408D8806EA05152A434FF6FF35BB
:101290002B404FF2FF752B408D8906EA85052B43C5
:1012A000CD8906EA85052B4383800483CD88058795
:1012B000028470BD70B5002400220023058C4FF617
:1012C000FF6635400584028C8388848B4FF68F75CA
:1012D0002C404FF6FC752C400D882C434FF6FF55E3
:1012E0002A400D894FF6FF7606EA05252A434D88E8
:1012F00006EA05252A431F4DA84202D0234DA842E5
:101300001DD14FF2FF752A404D894FF6FF7606EA50
:1013100005252A434FF6FF352A408D8806EA052524
:101320002A434EF6FF752B404DF6FF752B408D89F5
:1013300006EA05152B43CD8906EA05152B43838064
:101340008483CD888587028470BD70B50022002318
:101350000024058C4EF6FF7635400584038C848886
:10136000828B48F6FF752A404FF6FF452A400D88CC
:1013700020E00000002C0140000400400008004074
:10138000000C0040001000400014004000340140F8
:10139000004C014000500140005401400018004042
:1013A000001C00400020004000400140004401407B
:1013B000004801404FF6FF7606EA05252A434DF620
:1013C000FF752B400D8906EA05352B434D8806EA4B
:1013D00005352B43FA4DA84202D0FA4DA84208D158
:1013E0004BF6FF752C408D894FF6FF7606EA851582
:1013F0002C4384808283CD88A0F84050038470BD44
:10140000828B4FF2FF331A408283828B4FF6FF7339
:1014100003EA01231A4382837047F0B50C46154650
:10142000002200210026078C4EF6FF7C07EA0C07FD
:101430000784828B018C4FF6FF7707EA043640F66B
:10144000FF473A404FF6FF7707EA05273A434FF642
:10145000FF7707EA03373A43D94FB8420ED0D94F46
:10146000B8420BD0B0F1804F08D0D74FB84205D06A
:10147000D64FB84202D0D64FB84206D14DF6FF77CC
:10148000394046F48057394305E047F6FF57394065
:1014900044F48057394382830184F0BD828B4FF638
:1014A000F3731A408283828B0A4382837047F0B5BC
:1014B0000C461546002200210026078C4FF6FF6CD3
:1014C00007EA0C070784828B018C4FF6FF7707EA47
:1014D00004264FF60C773A404FF6FF7707EA0317DA
:1014E0002F433A43B64FB8420ED0B64FB8420BD056
:1014F000B0F1804F08D0B44FB84205D0B34FB842D6
:1015000002D0B34FB84206D14FF6FF57394046F4E8
:101510008077394305E04FF2FF57394044F4807734
:10152000394382830184F0BD028B4FF2FF331A40AE
:101530000283028B4FF6FF7303EA01231A430283EF
:101540007047F0B50C461546002200210026078C96
:101550004FF6EF7C07EA0C070784028B018C4FF6ED
:10156000FF7707EA041640F6FF473A404FF6FF7749
:1015700007EA03373A434FF6FF7707EA05273A436E
:101580008F4FB8420ED08F4FB8420BD0B0F1804F82
:1015900008D08D4FB84205D08C4FB84202D08C4F46
:1015A000B84206D14FF6DF77394046F0100739438D
:1015B00005E04FF65F77394044F010073943028366
:1015C0000184F0BD028B4FF6F3731A400283028B45
:1015D0000A4302837047F0B50C46154600220021ED
:1015E000068C4FF6FE773E400684028B018C4FF648
:1015F0000C7632407E1C06EA03162E433243704EB0
:10160000B0420ED06F4EB0420BD0B0F1804F08D038
:101610006D4EB04205D06D4EB04202D06C4EB0421D
:1016200006D14FF6FD76314044F00106314305E026
:101630004FF6F576314044F00106314302830184D0
:10164000F0BD70B505460C465D4885420ED05D483C
:1016500085420BD0B5F1804F08D05B48854205D05C
:101660005A48854202D05A48854200D100E000BF66
:10167000208850B92389A28861882846FFF7ABFFEC
:10168000E1882846FFF79EFF25E0208804280AD13C
:101690002389A28861882846FFF753FFE1882846FE
:1016A000FFF742FF17E0208808280AD12389A28883
:1016B00061882846FFF7FBFEE1882846FFF7EEFE2B
:1016C00009E02389A28861882846FFF7A6FEE18801
:1016D0002846FFF795FE70BD2DE9F04105460C4602
:1016E00000260127608808B9022600E00026A088AD
:1016F000012801D1022700E001272088A0B9238911
:10170000A28861882846FFF766FFE1882846FFF730
:1017100059FF23893A4631462846FFF712FFE188F0
:101720002846FFF701FF13E02389A2886188284635
:10173000FFF707FFE1882846FFF7F6FE23893A46C0
:1017400031462846FFF747FFE1882846FFF73AFF72
:10175000BDE8F0810A884B881A438B881A43CB88EE
:101760001A430B891A434B891A438B891A43A0F8F1
:10177000442070474FF6FF71818000210180C180B5
:101780004180017270470021018041808180C180C9
:10179000018141818181C1817047002101804180A7
:1017A000012181800021C1800181704700210180D9
:1017B00041808180C1800181418181817047000029
:1017C000002C0140003401400004004000080040AB
:1017D000000C004021B1028842F00102028004E0C6
:1017E00002884FF6FE731A400280704731B1B0F89C
:1017F000442042F40042A0F8442005E0B0F8442020
:10180000C2F30E02A0F8442070471AB183890B433B
:10181000838102E083898B43838170478182704793
:1018200041EA0203A0F8483070471AB183890B439C
:10183000838102E083898B438381704701894FF65E
:10184000F8721140018170470A46002101894FF664
:101850008F73194011430181704730B504460D461E
:1018600029462046FFF7F0FF208940F0070020813D
:1018700030BD2DE9F04104460D4616461F46602D49
:1018800006D13B46012231462046FFF75AFE05E0CD
:101890003B46012231462046FFF79DFE2946204661
:1018A000FFF7D2FF208940F007002081BDE8F081DA
:1018B00030B50C4600210189C9B24FF6FF7505EA23
:1018C0000325154325432943018130BD2DE9F0410E
:1018D00005460E4617469846002443463A4631468A
:1018E0002846FFF7E5FF2C894FF6F870044044F0D6
:1018F00007044FF68F70044044F070042C81BDE85B
:10190000F081F0B504460D4616461F463B4632466A
:1019100029462046FFF7CCFF208940F480402081F3
:10192000F0BD0185828270470A46002101884FF68A
:101930008F731940114301807047F0B50C4615466E
:101940001E460021002200230189028B038C4FF6E2
:10195000F877394021434FF6FC473A4040F20117EF
:101960003A434FF6DD773B404FF6FF7707EA06171D
:101970002F433B43018102830384F0BD0A460021CB
:10198000018B4FF68F7319401143018370470A464C
:101990000021018B48F6FF7319404FF6FF7303EAED
:1019A00002231943018370470A460021818B4FF6B9
:1019B0008F7319401143818370470A460021818B40
:1019C00048F6FF7319404FF6FF7303EA02231943E9
:1019D0008183704721B1028842F08002028004E0D6
:1019E00002884FF67F731A400280704721B18288C7
:1019F00042F00402828004E082884FF6FB731A40B2
:101A00008280704721B1828842F00802828004E01F
:101A100082884FF6F7731A408280704721B182881E
:101A200042F00102828004E082884FF6FE731A4081
:101A3000828070470A460021018B4FF6F7731940E8
:101A40001143018370470A460021018B4FF2FF7357
:101A500019404FF6FF7303EA0223194301837047CD
:101A60000A460021818B4FF6F77319401143818399
:101A700070470A460021818B4FF2FF7319404FF6E1
:101A8000FF7303EA02231943818370470A4600214A
:101A9000018B4FF6FB7319401143018370470A46CF
:101AA0000021018B4FF6FF3319404FF6FF7303EA15
:101AB00002231943018370470A460021818B4FF6A8
:101AC000FB7319401143818370470A460021818BC3
:101AD0004FF6FF3319404FF6FF7303EA0223194311
:101AE000818370470A460021018B4FF67F731940AE
:101AF0001143018370470A460021018BC1F30E0197
:101B00004FF6FF7303EA02231943018370470A4625
:101B10000021818B4FF67F731940114381837047F9
:101B20000A460021818BC1F30E014FF6FF7303EAD1
:101B300002231943818370470A460021018C4FF626
:101B4000FD7319401143018470470A460021018C3E
:101B50004FF6F77319401143018470470A4600217C
:101B6000018C4FF6DF7319404FF6FF7303EA02133F
:101B70001943018470470A460021018C4FF67F7398
:101B800019404FF6FF7303EA0213194301847047AB
:101B90000A460021018C4FF6FF5319404FF6FF73A0
:101BA00003EA02231943018470470A460021018C8D
:101BB0004FF2FF7319404FF6FF7303EA02231943F4
:101BC000018470470A460021018C4DF6FF731940CD
:101BD0004FF6FF7303EA023319430184704730B5AF
:101BE000002301248C40A3B2048C9C430484048C05
:101BF00002FA01F5ADB22C43048430BD30B50023A8
:101C000004248C40A3B2048C9C430484048C02FA08
:101C100001F5ADB22C43048430BD70B503460020FD
:101C200000241846183001258D40ACB21D8CA54308
:101C30001D8409B1082909D100EB6100056825F070
:101C4000700505600568154305600EE00D1FC5F3BE
:101C50004E052844056825F4E045056005684FF603
:101C6000FF7606EA02263543056070BD21B1028881
:101C700042F00202028004E002884FF6FD731A402F
:101C80000280704721B1028842F00402028004E021
:101C900002884FF6FB731A400280704721B1828898
:101CA00042F08002828004E082884FF67F731A40FF
:101CB0008280704702884FF6F7731A4002800288CC
:101CC0000A430280704782884FF68F731A408280E1
:101CD00082880A438280704702894FF6F8731A405F
:101CE000028102890A430281704702894FF67F739D
:101CF0001A40028102890A43028170478184704739
:101D0000818570478186704701877047818770475A
:101D1000A0F84010704702884FF6FF431A40028037
:101D200002880A43028070470146888E7047014648
:101D3000088F70470146888F70470146B1F8400010
:101D400070470146888C70470146088D70470246EF
:101D50000020138A0B400BB1012000E000207047E7
:101D6000CA430282704730B5024600200023002497
:101D7000158A05EA0103958905EA010413B10CB13E
:101D8000012000E0002030BDCA43028270470000FD
:101D900010B50446FB48844209D101218803FFF7AE
:101DA0009FF800214FF48040FFF79AF832E0F648A0
:101DB000844209D101214804FFF79FF800214FF424
:101DC0000030FFF79AF825E0F048844209D101215C
:101DD0008804FFF792F800214FF48020FFF78DF878
:101DE00018E0EB48844209D10121C804FFF785F8C7
:101DF00000214FF40020FFF780F80BE0E548844213
:101E000008D101210805FFF778F800214FF4801070
:101E1000FFF773F810BD2DE9F04786B005460E4672
:101E20000024A24600BFA1460027B08900B100BF30
:101E30002F462C8A4CF6FF700440F08804432C8215
:101E4000AC894EF6F3100440B0883189084371899B
:101E500008430443AC81AC8A4FF6FF400440B0898C
:101E60000443AC8201A8FEF7B4FFC648874202D102
:101E7000DDF810A001E0DDF80CA0A88900F4004016
:101E800040B10AEBCA0000EB0A1031684900B0FB10
:101E9000F1F807E00AEBCA0000EB0A10316889008C
:101EA000B0FBF1F86420B8FBF0F0040120096421D4
:101EB00001FB1089A88900F4004040B1322000EBFA
:101EC000C900B0FBF1F000F00700044308E0322045
:101ED00000EB09106421B0FBF1F000F00F000443A7
:101EE0002C8106B0BDE8F0874FF416510160002147
:101EF0008180C18001810C21418100218181704755
:101F000010B502460020108A4FF2FF0318400B88DC
:101F10004C8823438C882343CC8823431843108266
:101F200010BD0021018041808180C180704721B1B6
:101F3000828942F40052828104E082894DF6FF7367
:101F40001A4082817047F0B5034600240026002520
:101F5000002040F66A17B94200D100BF1846C1F30D
:101F6000421401F01F06012707FA06F5012C01D1E2
:101F70000C3004E0022C01D1103000E014301AB112
:101F800007682F43076002E00768AF430760F0BDB2
:101F90001AB1838A0B43838202E0838A8B43838254
:101FA0007047028A4FF6F0731A400282028A0A438F
:101FB0000282704782894FF2FF731A4082818289C0
:101FC0000A438281704721B1828942F002028281F4
:101FD00004E082894FF6FD731A4082817047028ABD
:101FE0004FF6DF731A400282028A0A430282704768
:101FF00021B1028A42F48042028204E0028A4BF656
:10200000FF731A4002827047C1F308028280704752
:1020100001468888C0F308007047818941F00101BA
:1020200081817047028BD2B20283028B42EA012285
:1020300002837047028B02F47F420283028B0A43C1
:102040000283704721B1828A42F02002828204E03A
:10205000828A4FF6DF731A408282704721B1828AEA
:1020600042F01002828204E0828A4FF6EF731A4037
:102070008282704721B1828A42F00802828204E0A3
:10208000828A4FF6F7731A408282704721B18289A3
:1020900042F40042828103E08289C2F30E0282810F
:1020A000704721B1828A42F40062828204E0828A0F
:1020B0004FF2FF731A4082827047828A4FF6FB7399
:1020C0001A408282828A0A438282704721B1828AC0
:1020D00042F00202828204E0828A4FF6FD731A40C7
:1020E0008282704702460020B1F5007F00D100BF18
:1020F00013880B400BB1012000E00020704701F471
:102100000072B2F5007F00D100BFCA430280704761
:1021100070B50246002400230025002040F66A1610
:10212000B14200D100BFC1F3421501F01F030126E7
:1021300006FA03F3012D02D19689334006E0022D01
:1021400002D1168A334001E0968A33400C120126F0
:1021500006FA04F41688344013B10CB1012000E0F3
:10216000002070BD10B50022002340F66A14A14281
:1021700000D100BF0A1201249440A3B2DC430480C2
:1021800010BD0000003801400044004000480040FD
:10219000004C00400050004000F005FA00F082FFC3
:1021A00022E01248C06880F010001049C86008465C
:1021B000C06880F00800C86000F003FA0C480068AE
:1021C000C0F3400080B10948C06880F010000749A2
:1021D000C8600846C06880F00800C860044800680D
:1021E00020F0020002490860DBE700000010014017
:1021F00048000020704700BFFEE700BFFEE700BFB9
:10220000FEE700BFFEE7704770477047704710B5A4
:1022100040F225511648FFF77BFF60B11448FFF7E5
:10222000F7FEC4B2134804701348006820F0400061
:1022300040301149086010BD10B51048008888B1C1
:1022400004210F48FFF78FFD48B10D48FFF76CFDE3
:102250000C4908800A48FFF76AFD0B4908800020F6
:102260000649088005210648FFF78EFD10BD0000D5
:10227000003801403C0000204800002042000020BF
:1022800000080040400000203E00002000B585B05E
:10229000012144F20400FEF709FE4FF40070ADF88E
:1022A000100018208DF8130003208DF8120004A9E7
:1022B0002E48FEF73FFB4FF48060ADF8100004207D
:1022C0008DF8130004A92948FEF734FB4FF416508B
:1022D00000900020ADF80400ADF80600ADF808004D
:1022E000ADF80C000C20ADF80A0069462048FFF755
:1022F00092FD012240F225511D48FFF724FE0121E5
:102300001B48FFF714FE05B000BD08B54FF4E060B0
:10231000FEF71AF825208DF8000000208DF8010046
:1023200001208DF802008DF803006846FEF711F8D1
:1023300008BD70B504460D46E1B20D48FFF764FED6
:1023400000BF80210A48FFF7CDFE0028F9D02046C3
:1023500070BD10B5044600BF20210548FFF7C2FE3E
:102360000028F9D00248FFF753FE10BD00080140D5
:10237000003801400020FC490870FC490880FC49F5
:1023800008800120FB490880FB48006820F04000DD
:10239000F9490860704708B501211020FEF786FD55
:1023A0003820ADF8000010208DF8030003208DF8D0
:1023B00002006946F148FEF7BDFA08BD00B585B0D8
:1023C000012144F20400FEF771FD01214804FEF7EB
:1023D0007AFD01218804FEF776FD0121C804FEF78D
:1023E00072FD01210805FEF76EFD4FF40070ADF897
:1023F000100018208DF8130003208DF8120004A996
:10240000DF48FEF797FA4FF48060ADF81000042023
:102410008DF8130004A9DA48FEF78CFA0420ADF811
:10242000100018208DF8130003208DF8120004A965
:10243000D348FEF77FFA0820ADF8100004208DF88D
:10244000130004A9CE48FEF775FA4FF48070ADF87A
:10245000100018208DF8130003208DF8120004A935
:10246000C848FEF767FA4FF40070ADF8100004207A
:102470008DF8130004A9C348FEF75CFA4FF4E1306D
:1024800000900020ADF80400ADF80600ADF808009B
:10249000ADF80C000C20ADF80A006946BA48FFF709
:1024A000BAFC6946B948FFF7B6FC6946B848FFF779
:1024B000B2FC012240F22551B348FFF744FD01214F
:1024C000B148FFF734FD0121B048FFF730FD01218D
:1024D000AF48FFF72CFD05B000BDAE4800684FF4D3
:1024E0007A71B0FBF1F020F07F40401E4FF0E02108
:1024F0004861002088610846006940F001000861D9
:102500000846006940F00400086170471CB50020CF
:1025100001900090FEF75CFB4FF48030FEF778FBF3
:10252000FEF7B5FB01283DD10020FEF7F6FB0020A9
:10253000FEF705FC4FF48060FEF7F8FB9648006854
:1025400000F4003010B10120009001E00020009064
:10255000009801280FD19148006840F010008F4981
:1025600008600846006820F003000860084600681C
:1025700040F0020008604FF4E0114FF48030FEF7A5
:10258000AFFB0120FEF7B8FB00BF3920FEF763FB6D
:102590000028FAD00220FEF7B2FB00BFFEF7B8FB1E
:1025A0000828FBD11CBD10B5FFF7B0FFFFF795FF62
:1025B000FFF704FFFFF7EFFEFFF7A7FEFFF7DAFED6
:1025C00010BD4FF0E020006900F48030A0B36A48ED
:1025D000006820F00100401C6749086070480068EE
:1025E000401C6F4908600846006805281CD36248F3
:1025F000006820F00200801C5F49086000206849E4
:10260000086068480078401C6649087008460078F1
:10261000642809DD5848006820F00400001D564970
:10262000086000205F4908704FF0E020006920F446
:1026300080304FF0E02108617047564909685A4AD6
:10264000B1FBF2F1414321F07F41491E4FF0E022FE
:102650005161002191611146096921F480311161B4
:1026600006E04FF0E021096901F4803101B100E09A
:10267000F7E700BF704770B504460D46294620466F
:10268000FFF7C2FC00BF80212046FFF72BFD00288A
:10269000F9D070BD012806D13849C96881F40051CC
:1026A000364AD1600EE0022806D14049C96881F45B
:1026B00000413E4AD16005E03D49096881F400715E
:1026C0003B4A1160704700B587B001210846FEF70C
:1026D000E0FB01214FF40470FEF7E8FB0620ADF8A3
:1026E000180000208DF81B0006A92448FEF722F9E7
:1026F000002001908DF808008DF809004FF460204B
:1027000003900020049001208DF8140001A92948AD
:10271000FDF7AFFE4FF44040FEF72CFB05230122EE
:102720000B212448FDF73DFF00212248FDF7D8FE8C
:1027300001212048FDF7C9FE1E48FDF7E8FE00BF55
:102740001C48FDF7E9FE0028FAD11A48FDF7EEFE15
:1027500000BF1848FDF7EFFE0028FAD10121154807
:10276000FDF7F3FE07B000BD390000203E00002059
:1027700040000020420000204800002000100140DE
:1027800000080140001401400038014000440040AE
:1027900000480040000000200010024000200240DD
:1027A0002C0000207500002040420F000020014056
:1027B0000C0C01400024014010B504460020C24921
:1027C00008600021C148FDF780FE34B905230122CD
:1027D0000B21BE48FDF7E5FE07E0012C05D10523DE
:1027E00001220C21B948FDF7DCFE0121B748FDF7B5
:1027F0006CFEB648FDF78BFE00BFB448FDF78CFEBB
:102800000028FAD1B148FDF791FE00BFAF48FDF7AF
:1028100092FE0028FAD10121AC48FDF796FEAB48A4
:10282000006820F00200A949086000BF0221A74803
:10283000FDF7FCFF0028F9D0A448FDF719FFA249D5
:10284000086010BDF0B589B04FF4FA6740F2771414
:102850003D467D2601210220FEF735FB01210C209B
:10286000FEF724FBC020ADF8200018208DF82300CF
:1028700003208DF8220008A99548FEF75BF8032095
:10288000ADF8200008A99348FEF754F842F2107002
:10289000ADF818004820ADF814000020ADF81A007B
:1028A000ADF8160005A98C48FEF738FC6020ADF89D
:1028B00004000120ADF80600ADF80A700020ADF864
:1028C0000C0001A98448FEF766FC08218248FFF746
:1028D000B1F80120ADF80600ADF80A4001A97E4824
:1028E000FEF79BFC08217C48FFF7ADF80120ADF80E
:1028F0000600ADF80A5001A97748FEF7DBFC082175
:102900007548FFF7ADF80120ADF80600ADF80A6094
:1029100001A97148FEF719FD08216F48FFF7A9F8D2
:1029200001216D48FFF756F801216B48FEF752FF71
:1029300009B0F0BD7CB504460D4601210820FEF724
:10294000B5FA8020ADF8000004208DF803000320C4
:102950008DF8020069465F48FDF7ECFF00208DF816
:10296000050001208DF806008DF8070001A8FDF78D
:10297000F0FC7CBD10B50020FFF71EFF5248007828
:102980005649087010BD10B50120FFF715FF4E48DD
:1029900000785349087010BD1920524908707047DB
:1029A000302051490870704750480068401C4F491A
:1029B000086008460068B0F57A7F01D900200860F9
:1029C00070474B480068C0F38010002861D0484829
:1029D000006820F0400046490860464800783038DA
:1029E00017284DD2DFE800F00C1014181C20242802
:1029F0002C304C4C4C4C4C4C4C34383C40444800F3
:102A000000203D4908703BE001203B49087037E059
:102A100002203949087033E00320374908702FE05D
:102A20000420354908702BE005203349087027E061
:102A300006203149087023E007202F4908701FE065
:102A400008202D4908701BE009202B49087017E069
:102A50000A202949087013E00B20274908700FE06D
:102A60000C20254908700BE00D202349087007E071
:102A70000E202149087003E00F201F49087000BF95
:102A800000BF1E48007820F00100401C1B49087060
:102A900002E0102018490870704710B50446402124
:102AA0001748FFF72CFB0BE021781548FFF7ACFA2D
:102AB00000BF40211248FFF715FB0028F9D0641C25
:102AC00020780028F0D110BD4C00002000240140E7
:102AD00000080140000C01400004004034000020C8
:102AE0003500002037000020380000203000002092
:102AF000480000203C000020440000205800002036
:102B00000044004070472DE9F04104460D4616464A
:102B10001F463B4632462946204600F0CDFBBDE825
:102B2000F08110B500F078FB10BD2DE9F0470546A7
:102B30000F46904695F800903E46FE48007820F0FB
:102B40000100FC490870FFF7ECFF002401E1464555
:102B500006D10223F84A21460020FFF7D4FF05E002
:102B60000223F6A221460020FFF7CDFF06EB8600E8
:102B700005EB8000437806EB860005EB80002146DC
:102B800042680320FFF7BFFFED4885427DD1002C4E
:102B90007BDD04EB4400EB4911F8100030B1142345
:102BA000E9A221461920FFF7AEFF05E01423E9A2B0
:102BB00021461920FFF7A7FF04EB4400E14901EB90
:102BC000400040884FF47A7190FBF1F00A2190FBAD
:102BD000F1F201FB1200E249087004EB4400D9490C
:102BE00001EB40004088642190FBF1F00A2190FB4A
:102BF000F1F201FB1200DB49087004EB4400D149FB
:102C000001EB400040880A2190FBF1F090FBF1F2CB
:102C100001FB1200D449087004EB4400C94901EBE0
:102C2000400040880A2190FBF1F201FB1200CF49DD
:102C300008702146222000F011FB5B2000F019FBF8
:102C4000C74909783031C8B200F013FBC54909788B
:102C50003031C8B200F00DFBC34909783031C8B239
:102C600000F007FBC14909783031C8B200F001FB20
:102C70005D2000F0FEFA2D2000F0FBFA2D2000F080
:102C8000F8FA2D2000F0F5FA00E05EE004EB4400D5
:102C9000AC4901EB400080884FF47A7190FBF1F071
:102CA0000A2190FBF1F201FB1200B149087004EB1C
:102CB0004400A44901EB40008088642190FBF1F0BE
:102CC0000A2190FBF1F201FB1200AA49087004EB03
:102CD00044009C4901EB400080880A2190FBF1F000
:102CE00090FBF1F201FB1200A349087004EB4400D1
:102CF000944901EB400080880A2190FBF1F201FB2E
:102D000012009E49087021462B2000F0A7FA5B2094
:102D100000F0AFFA964909783031C8B200F0A9FA4C
:102D2000944909783031C8B200F0A3FA9249097881
:102D30003031C8B200F09DFA904909783031C8B2FC
:102D400000F097FA5D2000F094FA701CC6B2601C87
:102D5000C4B24E4502DA082CFFF6F9AE7548007889
:102D6000C0F34000002841D08548007809283CD2B3
:102D7000DFE800F0050B11171D23292F35008148CE
:102D800001781C2000F06AFA2FE07E4801782320A9
:102D900000F064FA29E07B480178242000F05EFA14
:102DA00023E078480178252000F058FA1DE07548A6
:102DB0000178262000F052FA17E0724801782C20A2
:102DC00000F04CFA11E06F4801782D2000F046FA2F
:102DD0000BE06C4801782E2000F040FA05E06948CD
:102DE00001782F2000F03AFA00BF00BFBDE8F0875D
:102DF0002DE9F04105460E4695F8008034466248BC
:102E00000778102F0CD2DFE807F0080C1014181CFC
:102E10002024282C303E4F657B7F5CA0FFF73DFED1
:102E20000BE15BA0FFF739FE07E15AA0FFF735FE83
:102E300003E159A0FFF731FEFFE058A0FFF72DFE98
:102E4000FBE057A0FFF729FEF7E056A0FFF725FEAD
:102E5000F3E055A0FFF721FEEFE054A0FFF71DFEC1
:102E6000EBE053A0FFF719FEE7E052A0FFF715FED5
:102E700030480078C0F3400020B90CB9002401E0CC
:102E8000601EC4B2D9E02B480078C0F3400038B9C6
:102E9000A8F10100A04201D1C4B201E0601CC4B29B
:102EA00045A0FFF7FAFDC8E045A0FFF7F6FD214871
:102EB0000078C0F3400060B131480078002805DD9B
:102EC0002F480078401E2E49087002E000202C494F
:102ED0000870B2E03CA0FFF7E0FD16480078C0F3B0
:102EE000400060B126480078082805DA24480078B8
:102EF000401C2349087002E00820214908709CE02A
:102F000033A0FFF7CAFD98E032A0FFF7C6FD04EB3F
:102F1000840005EB8000C06850B104EB840005EB31
:102F20008000C0682D4908602D480178007859E07C
:102F30005FE0000058000020553500082020000008
:102F4000CC370008C2000020A3BA5BBFAA5D2D2DBC
:102F50002D000000A3BA5BB9D85D2D2D2D00000017
:102F60006D0000206E0000206F0000207000002027
:102F70007100002072000020730000207400002007
:102F80006C000020590000204400002030000000A8
:102F90003100000032000000330000003400000067
:102FA0003500000036000000370000003800000047
:102FB0003900000075700000646F776E000000003B
:102FC0006C65667400000000726967687400000038
:102FD00065736300656E7465720000005400002024
:102FE00062000020401C794A107079484454002443
:102FF00023E004EB840005EB8000806830B104EB33
:10300000840105EB81018868804716E004EB8400A9
:1030100005EB8000006978B104EB840005EB8000CB
:1030200000696C49086069480078401EC0B2674971
:10303000087067490C5C00E000BF00BF224666A133
:10304000694800F0ABF96848FFF727FD2046BDE866
:10305000F08170B5654804786548007800F001009B
:10306000E8B16348007820F001006149087021460A
:1030700058480068FFF7BCFE0446082C01DA00251A
:1030800001E0E01FC5B25A480078C0F3400000B923
:1030900000BF224629464F480068FFF746FD5348C7
:1030A000047070BD10B553A000F068F95348494949
:1030B000086000204E49087001205149887108734A
:1030C00088740876887781F8240081F82A0081F8CE
:1030D000300081F8360081F83C0081F8420081F828
:1030E000480081F84E004FF47A7145480181C18152
:1030F000818241830184C184818541860187C187A2
:10310000A0F84410A0F84A10A0F8501041F28831FD
:1031100041810182C182818341840185C18581868B
:103120004187A0F84010A0F84610A0F84C10A0F875
:10313000521032482749086000221146254800688D
:10314000FFF7F3FC10BD10B52E4822490860052298
:10315000002120480068FFF7E8FC10BD24480078F3
:103160004008C0432249097860F3410120480170BA
:10317000002025490870704710B50124FFF7D1FCE5
:103180001123224A0A210520FFF7BDFC1AE0FFF7B0
:1031900018FA1F480068C0F3400098B1FFF711FC0F
:1031A0001348007800F0010030B11A4800780F2869
:1031B00002D1FFF74EFF06E01548006820F002003C
:1031C00013490860E3E700BF10BD00006200002063
:1031D0005A000020540000206D656E75496E6465CC
:1031E000783D25643B0000007C0000205900002051
:1031F000580000201B5B306D0000000018370008ED
:10320000C2000020203900086C000020443500086E
:10321000480000204400002010B536A000F0AEF8B1
:1032200010BD70B504460D46002600BF402133484E
:10323000FEF765FF0DE021783048FEF7E5FE00BFA0
:1032400040212E48FEF74EFF0028F9D0641C701C68
:10325000C6B2207808B1AE42EDDB70BD70B5044651
:103260000D466806050E2246294625A000F086F880
:1032700070BD10B5044621462048FEF7C5FE00BFCC
:1032800040211E48FEF72EFF0028F9D010BD10B5D2
:103290001EA000F073F810BD10B51EA000F06EF86F
:1032A00010BD10B504461CB91CA000F067F802E080
:1032B0001CA000F063F810BD2DE9F04105460E4654
:1032C00017461C46204604EBD0714910A4EB41017F
:1032D000012901D1601EC4B27006060E2A4631468D
:1032E00007A000F04BF821463846FFF79AFFBDE8EB
:1032F000F08100001B5B324A0000000000380140F2
:103300001B5B25643B256448000000001B5B346D9B
:10331000000000001B5B306D000000001B5B3F32B3
:10332000356C00001B5B3F323568000030B50B4642
:10333000014600202022012409E021FA02F59D42E5
:1033400005D303FA02F5491B04FA02F52844151EB9
:10335000A2F10102F1DC30BD064C074D06E0E06849
:1033600040F0010394E8070098471034AC42F6D3CC
:10337000FCF7E2FE383A0008583A00080FB4054B53
:1033800010B503A9044A029800F02CF810BC5DF8AF
:1033900014FB000033230008780000200FB4084B12
:1033A00010B504A902AA039800F01CF8044602A96B
:1033B000002000F0C1F8204610BC5DF814FB0000AE
:1033C0003935000802E008C8121F08C1002AFAD1E6
:1033D00070477047002001E001C1121F002AFBD195
:1033E000704700002DE9FF4F89B09B460446002539
:1033F00006E025280BD05A460B999047641C6D1C9B
:1034000020780028F5D10DB02846BDE8F08F0027C0
:10341000B8460122474900E0074314F8013F203B2A
:1034200002FA03F00842F7D120782E2819D114F8B7
:10343000010F47F004072A280ED06FF02F022078E2
:10344000A0F1300109290CD808EB880102EB4101F9
:1034500000EB0108641CF2E70A98641C50F8048B26
:103460000A9020780028CED0642808D0692806D099
:1034700075281ED05A460B9990476D1C58E00A9942
:103480004FF00A0901C90A91002802DA40422D21B1
:1034900002E0390504D52B218DF82010012103E02D
:1034A000F90704D02021F7E78A4608AE0DE0002195
:1034B000FAE70A994FF00A0901C90A91F7E7494664
:1034C000FFF734FF303106F8011D0028F7D1ADEBCE
:1034D000060000F12009780701D44FF00108C84523
:1034E00002DDA8EB090000E000208046002706E08E
:1034F00008A85A46C05D0B9990476D1C7F1C574524
:10350000F6DB04E030205A460B9990476D1CB8F169
:103510000001A8F10108F5DC05E016F8010B5A4698
:103520000B9990476D1CB9F10001A9F10109F4DC78
:10353000641C65E7092801000A68531C0B601070C1
:10354000704700001B5B376D68656C6C6F2C776F84
:10355000726C640A002D3E00302EB7B5BBD8B8F9A6
:10356000B2CBB5A500312EC6B7BAC5D1A1D4F100F2
:10357000302EB7B5BBD8C6B7BAC5D1A1D4F100318A
:103580002E383431342D38303135303100322E3848
:103590003431342D38303135303200332E38343137
:1035A000342D38303135303300322ECAD6B6AFC95B
:1035B000E8D6C300302EB7B5BBD8CAD6B6AFC9E877
:1035C000D6C300312ED7D4BAC4B5E7D6B5287541D5
:1035D00029A3BA3A00322EB9FDB3E4B1A3BBA4B516
:1035E000E7D1B9D6B5286D56293A00332EC4DAD7BB
:1035F000E8D6B5286D522900342EB9FDB5E7C1F7DC
:10360000B1A3BBA4D6B5284129A3BA00352EB9FD74
:10361000B7C5B1A3BBA4B5E7D1B9D6B5286D5629B6
:10362000A3BA00362EB9FDB5E7C1F7D1D3CAB1D6DA
:10363000B5286D5329A3BA00372EB9FDB3E4B5E719
:10364000D1D3CAB1D6B5286D5329A3BA00382EB943
:10365000FDB7C5B5E7D1D3CAB1D6B5286D53293A60
:1036600000392EC8C8C3F4B5E7D7E8D6B5284B5201
:10367000290031302ECAB6B1F0B5E7D7E8D6B52863
:103680004B5229A3BA0031312EB6C1C2EBA3BA0006
:1036900031322EB9FDB3E4B1A3BBA4BBD6B8B4B5E7
:1036A000E7D1B9D6B52856293A0031332EB9FDB73E
:1036B000C5B1A3BBA4BBD6B8B4B5E7D1B9D6B528BC
:1036C000562900332EC4A3CABDD1A1D4F100302E97
:1036D000B7B5BBD8C4A3CABDD1A1D4F100312ED790
:1036E000D4B6AFC4A3CABDA3BA3A00322ECFEACF34
:1036F000B8C4A3CABD286D56293A00342EBFAACA41
:10370000BCB2E2CAD400302EB7B5BBD8BFAACABC7F
:10371000B2E2CAD400000000050D000058350008D0
:10372000000000000000000018370008050B000032
:1037300065350008000000007C370008000000002C
:10374000050B0000A935000800000000CC37000878
:1037500000000000050B0000C33600080000000058
:10376000E438000800000000050B0000FB360008EC
:10377000000000002039000800000000040F0000D5
:103780007035000800000000000000001837000835
:10379000040E00007F35000800000000000000005B
:1037A00000000000040E00008D350008000000003D
:1037B0000000000000000000040E00009B3500081F
:1037C0000000000000000000000000000E0F0000DC
:1037D000B4350008000000000000000018370008A1
:1037E0000E120000C33500085D3100080000000023
:1037F000000000000E160000D53500085D310008FD
:1038000000000000000000000E0D0000EB35000875
:103810005D31000800000000000000000E140000F0
:10382000F83500085D3100080000000000000000CD
:103830000E1700000C3600085D3100080000000083
:10384000000000000E150000233600085D3100085E
:1038500000000000000000000E15000038360008CF
:103860005D31000800000000000000000E140000A0
:103870004D3600085D310008000000000000000027
:103880000E110000613600085D31000800000000E4
:10389000000000000E140000723600085D310008C0
:1038A00000000000000000000E0A0000863600083C
:1038B0005D31000800000000000000000E1A00004A
:1038C000903600085D310008000000000000000094
:1038D0000E190000AA3600085D3100080000000043
:1038E00000000000030F0000CE36000800000000BA
:1038F0000000000018370008030E0000DD36000845
:1039000000000000000000000000000003100000A4
:10391000EB3600080000000000000000000000007E
:103920000E0F000006370008000000000000000035
:10393000183700080E120000C33500080000000010
:1039400000000000000000000E160000D535000841
:103950000000000000000000000000000E0D00004C
:10396000EB3500080000000000000000000000002F
:103970000E140000F83500080000000000000000F0
:10398000000000000E1700000C36000800000000C8
:1039900000000000000000000E15000023360008A3
:1039A0000000000000000000000000000E150000F4
:1039B0003836000800000000000000000000000091
:1039C0000E1400004D36000800000000000000004A
:1039D000000000000E110000613600080000000029
:1039E00000000000000000000E1400007236000805
:1039F0000000000000000000000000000E0A0000AF
:103A000086360008000000000000000000000000F2
:103A10000E1A0000903600080000000000000000B0
:103A2000000000000E190000AA3600080000000087
:103A30000000000000000000583A000800000020CC
:103A40007C000000C4330008D43A00087C00002049
:103A5000F4040000D433000800A24A04000000006F
:103A6000000000000102030406070809000000002E
:103A70000102030401020304060708090204060800
:103A80000000000000000000000000000000000036
:103A90000000000000000000000000000000000026
:103AA0000000000000000000000000000000000016
:103AB0000000000000000000000000000000000006
:103AC00000000000000000000000000000000000F6
:043AD00000000000F2
:0400000508000131BD
:00000001FF
